:020000040800F2
:10800000C0AB01208D820008DDC30008EBBC000876
:1080100051C20008379500082D93010800000000A8
:10802000000000000000000000000000AD29010871
:108030007DAA000800000000278A00080945010801
:10804000A7820008A7820008A7820008A78200086C
:10805000A7820008A7820008A7820008A78200085C
:10806000A7820008A7820008A7820008A78200084C
:10807000A7820008A7820008A782000831A3000891
:10808000A7820008A7820008A7820008A78200082C
:108090003D950008A7820008A7820008A782000873
:1080A000A7820008A7820008A7820008A78200080C
:1080B000A7820008A7820008A7820008A7820008FC
:1080C000A7820008A7820008A7820008A7820008EC
:1080D000A7820008A7820008295001080D51010855
:1080E000A7820008A7820008A7820008A7820008CC
:1080F000A7820008A7820008A7820008A7820008BC
:10810000A7820008A7820008A7820008A7820008AB
:108110002D4E0108A7820008A7820008A782000848
:1081200071A30008A7820008A7820008A7820008A0
:10813000A7820008A7820008A7820008A78200087B
:10814000CD970008A7820008A7820008350801081B
:10815000A7820008A7820008A7820008A78200085B
:10816000A7820008A7820008A7820008A78200084B
:10817000A7820008A7820008A7820008A78200083B
:10818000A7820008A782000800F002F800F067F854
:108190000AA090E8000C82448344AAF10107DA4562
:1081A00001D100F05CF8AFF2090EBAE80F0013F04D
:1081B000010F18BFFB1A43F001031847104D0100CF
:1081C000304D01000A444FF0000C10F8013B13F051
:1081D000070408BF10F8014B1D1108BF10F8015B20
:1081E000641E05D010F8016B641E01F8016BF9D113
:1081F00013F0080F1EBF10F8014BAD1C0C1B09D16A
:108200006D1E58BF01F801CBFAD505E014F8016BDB
:1082100001F8016B6D1EF9D59142D6D3704700006D
:108220000023002400250026103A28BF78C1FBD87F
:10823000520728BF30C148BF0B607047642900F067
:10824000D380782900F03781732900F05C83002007
:1082500070471FB514F0F0FC1FBD10B510BD00F045
:1082600094FB1146FFF7F5FF13F0F2FA00F0B2FBB2
:1082700003B4FFF7F2FF03BC12F013FA30BF72B67B
:10828000704762B6704780F3088870470948804796
:1082900009480047FEE7FEE7FEE7FEE7FEE7FEE7E8
:1082A000FEE7FEE7FEE7FEE704480549054A064B00
:1082B000704700002545010889810008C0A1012000
:1082C000C0AB0120C0A30120C0A3012072B670473B
:1082D00062B67047EFF3108072B6704780F3108873
:1082E000704730BF704720BF7047B0FA80F07047CA
:1082F00090FAA0F0B0FA80F0704790FAA0F07047C2
:10830000704700000FB4044910B503AA029800F0AA
:10831000FFFA10BC5DF814FB3C0300200FB41CB541
:10832000084B06AA7B4469460090059800F0C1FA04
:1083300004460020694600F0CFFA20461CBC5DF8D8
:1083400014FB0000B105000070B5044685690068A3
:10835000C10601D5302600E02026C00707D070BD39
:10836000D4E9012130469047206A401C20626D1EEE
:10837000F6D570BD70B5044685690078C00707D191
:1083800070BDD4E9012120209047206A401C206262
:108390006D1EF6D570BD70B50C460546012A05D098
:1083A0002878800600D5EA69002302E0012305E071
:1083B0005B1C934202D2E05C0028F9D1A869E61860
:1083C000C01AA861286A184428622846FFF7BCFF33
:1083D00004E0D5E9012114F8010B9047B442F8D329
:1083E0002846FFF7C7FF70BD2DE9F041064600247F
:1083F00010687529314616A510D0AFF3008000280B
:1084000002DA404213A507E031688A0701D512A5B8
:1084100002E0490704D511A5012401E0AFF3008073
:1084200000210A2206F1240709E0B0FBF2FCB0FBB0
:10843000F2F302FB1C00303078541846491C002827
:10844000F3D123462A463046BDE8F04100F0D2B9C8
:10845000000000002D0000002B00000020000000A4
:10846000F0B40D460188090502D5214C7C4402E098
:108470001F4C7C440E34002100F1240608E002F079
:108480000F071209E75D42EA03721B097754491C82
:1084900052EA0307F3D102780023120704D5702DA6
:1084A00006D009B1022311342246F0BC00F0A2B973
:1084B00001231034F8E770B504460D4621461068D4
:1084C000AFF30080024629462046BDE870400023F5
:1084D000C6E7D21D22F00703D3E90023C0E70368F3
:1084E000126843F0200303600823C3610023B7E749
:1084F000184A01002DE9F05F894604464FF0000A52
:10850000DFF874B1FB44C0F820A02046E16888473A
:10851000002874D0252806D0D4E901219047206A8C
:10852000401C2062F1E700265F462046E16888474C
:108530002028054607DB312D05D2781910F8200CCC
:1085400008B10643F1E7B00701D526F00406C4F8E8
:108550001CA00027C4F818A02A2D09D0284612F024
:1085600099F838B304EB8708303DC8F8185019E083
:1085700059F8041B204604EB87029161E1688847A3
:10858000012F054618D1E069002820DA26F02006E0
:108590001DE0D8F8180000EB800005EB40003038F3
:1085A000C8F818002046E1688847054612F072F8BE
:1085B0000028EED1012F0AD02E2D08D12046E168E7
:1085C00088477F1C0546022F46F02006C4DBA069C1
:1085D000002803DA404246F00106A061F00701D00E
:1085E00026F010066C2D0BD0682D09D04C2D39D0FB
:1085F0006A2D35D0742D35D07A2D33D016E038E081
:10860000E1682F4620468847B842054609D16C2FBD
:1086100026D04FF48060E16806432046884705462F
:1086200004E06C2F1AD04FF4807006430DB3A5F10F
:108630004100192802D8203546F400664A462946EA
:10864000204626604E46FFF7F9FD80B101280BD089
:10865000F61D26F0070000F1080956E74020E4E780
:108660008020D8E70020D6E706F104094DE7284628
:1086700052E7206ABDE8F09FA849010010B5431CED
:1086800002E010F8011B71B18107FAD14FF00132FD
:1086900002C88C1A8C4314EAC211F9D0C01A0A0617
:1086A00003D0C01E10BDC01A10BD0A0401D0801E28
:1086B00010BD0902FCD0401E10BD032A40F23080DC
:1086C00010F0030C00F0158011F8013BBCF1020F13
:1086D000624498BF11F801CB00F8013B38BF11F894
:1086E000013BA2F1040298BF00F801CB38BF00F8AB
:1086F000013B11F0030300F02580083AC0F0088028
:1087000051F8043B083A51F804CBA0E80810F5E70B
:10871000121D5CBF51F8043B40F8043BAFF30080EE
:10872000D20724BF11F8013B11F801CB48BF11F863
:10873000012B24BF00F8013B00F801CB48BF00F833
:10874000012B704710B5203AC0F00B80B1E81850EB
:10875000203AA0E81850B1E81850A0E81850BFF42B
:10876000F5AF5FEA027C24BFB1E81850A0E81850CA
:1087700044BF18C918C0BDE810405FEA827C24BF1E
:1087800051F8043B40F8043B08BF7047D20728BFAC
:1087900031F8023B48BF11F8012B28BF20F8023BFB
:1087A00048BF00F8012B70474FF000020429C0F0C9
:1087B000128010F0030C00F0BF80CCF1040CBCF16F
:1087C000020F18BF00F8012BA8BF20F8022BA1EB65
:1087D0000C0100F0B1B85FEAC17C24BF00F8012BA6
:1087E00000F8012B48BF00F8012B70477047704715
:1087F000704770472DE9F0470D469946924604466A
:1088000000F124080168880604D5E06921F0100110
:10881000216000E00120A84201DD471B00E00027A5
:10882000A1697A1902EB0900081AA0612078C00634
:1088300002D42046FFF788FD002608E0D4E9012194
:108840001AF806009047206A401C761C20624E45AC
:10885000F4DB2078C0060AD52046FFF775FD06E058
:10886000D4E9012130209047206A401C2062381E44
:10887000A7F10107F4DC07E0D4E9012118F80500AD
:108880009047206A401C2062281EA5F10105F3DCF8
:108890002046FFF76FFD2078000602D50220BDE8D4
:1088A000F0870120FBE7000001694A1C026108789B
:1088B000704700B58FB0CDE9013100210591054920
:1088C0007944CDE9031011466846FFF713FE0FB057
:1088D00000BD0000E5FFFFFF0A6802F8010B0A6017
:1088E000704710B5436913B1AFF3008001E0FFF7A3
:1088F00052FD012010BD127800F124010A700022FF
:108900004A700122EDE711684FF0FF32E9E70000FD
:10891000074B70B50D467B44FFF7CBFF0446284656
:1089200000F02FF810B14FF0FF3070BD204670BD41
:108930001F2B01004FF0000200B5134694469646E7
:10894000203922BFA0E80C50A0E80C50B1F1200162
:10895000BFF4F7AF090728BFA0E80C5048BF0CC010
:108960005DF804EB890028BF40F8042B08BF70476E
:1089700048BF20F8022B11F0804F18BF00F8012BE0
:108980007047007B00F080007047754600F02CF8BF
:10899000AE4605006946534620F00700854618B0EC
:1089A00020B5FFF781FCBDE820404FF000064FF0F6
:1089B00000074FF000084FF0000B21F00701AC4614
:1089C000ACE8C009ACE8C009ACE8C009ACE8C00933
:1089D0008D46704710B50446AFF300802046BDE8D1
:1089E0001040FFF745BC00000048704760A101201F
:1089F00022484FF6FF710170002080F3098820485B
:108A0000016881F308881F484FF08051016062B609
:108A1000FEE71C484FF080510160704719484FF045
:108A200080510160704772B6EFF3098050B11EF0BB
:108A3000100F08BF20ED108A203880E8F00F12498F
:108A40000968086000B5114880475DF804EB1048DC
:108A500010490A7802700C480F490A6802601068D1
:108A600090E8F00F20301EF0100F08BFB0EC108A15
:108A700080F309884EF0040E62B6704722ED00E0E4
:108A80002404002004ED00E01C04002005D80008A8
:108A9000AA030020AB0300202004002000B58DB005
:108AA0000121042008F0C8FE0121080208F004FF9B
:108AB0000E200B9003208DF8300000208DF833003D
:108AC0000BA9254802F07CF90121080208F004FFF7
:108AD00000214FF4807008F0FFFE002007900A90FC
:108AE00009904FF48030089007A800F045F8002066
:108AF000019001208DF808008DF8090000200390F6
:108B0000059003208DF8180001A9144800F062F8C0
:108B1000072301220B21114800F086F807230222C7
:108B20000C210E4800F080F8072303220D210B488A
:108B300000F07AF80121094800F041F801210748C6
:108B400000F032F80121054800F00AF8034800F06F
:108B5000C7F80DB000BD0000000802400020014031
:108B600021B1826842F00102826003E0826822F053
:108B700001028260704700000021084A1168084A1B
:108B80001140D0E900231A4383681A43C3681A438B
:108B90001143044AC2F80413704700000423014043
:108BA000E030FCFF0020014021B1826842F4807275
:108BB000826003E0826822F480728260704721B193
:108BC000826842F40072826003E0826822F40072DC
:108BD0008260704730B50246002000235068104C78
:108BE00020400D790C6844EA0524204350609068C9
:108BF0000C4C2040D1E903542C438D682C434D7913
:108C000044EA450420439060D06A20F470000C7D53
:108C1000641EE4B2234340EA0350D06230BD00003A
:108C2000FFFEFFFCFDF7FFC0F0B504460D46002037
:108C30000021092D11DDE068A5F10A0606EB4607C3
:108C4000072606FA07F18843A5F10A0606EB460651
:108C500003FA06F10843E0600CE0206905EB4507E4
:108C6000072606FA07F1884305EB450603FA06F1E5
:108C700008432061072A0FDA606B561E06EB860751
:108C80001F2606FA07F18843561E06EB860605FAEC
:108C900006F10843606322E00D2A0FDA206BD61F2D
:108CA00006EB86071F2606FA07F18843D61F06EB58
:108CB000860605FA06F10843206310E0E06AA2F197
:108CC0000D0606EB86071F2606FA07F18843A2F178
:108CD0000D0606EB860605FA06F10843E062F0BDD4
:108CE000816841F0804181607047000010B501202B
:108CF0000349087000204870022200F0FBFD10BDFF
:108D00007602002010B506200F4908700020487038
:108D10008870C87008714871062240F2012000F086
:108D2000E9FD0622084940F2022000F0E3FD062298
:108D3000054940F2032000F0DDFD062202494FF410
:108D4000017000F0D7FD10BD7602002010B507209D
:108D50000F490870002048708870C8700871487109
:108D6000062240F2012000F0C5FD0622084940F22B
:108D7000022000F0BFFD0622054940F2032000F06A
:108D8000B9FD062202494FF4017000F0B3FD10BD99
:108D90007602002070B504460D4600267F2C00DDCB
:108DA0007F2404F500760F200849087000204870E1
:108DB0008D70280AC8700422304600F09BFD20B157
:108DC00004220249304600F095FD70BD7602002075
:108DD00001203C49086000203B49C1F890023B4912
:108DE00008606EE03A48407A00285ED139488079C0
:108DF00010B93848407968B30120324908606423CB
:108E000000221146104611F039FF00203249C1F806
:108E1000A802642300221146104611F02FFF012002
:108E200028490860642300221146104611F026FFED
:108E300000202949C1F8A8026423002211461046E7
:108E400011F01CFF40F2DC5300221146104611F0D5
:108E500015FF14E001201B4908604FF4FA7300224B
:108E60001146104611F00AFF00201B49C1F8A80264
:108E70004FF4FA6300221146104611F0FFFE154828
:108E8000807810B113480079A8B901200D4928391C
:108E900008604FF47A7300221146104611F0EEFE7E
:108EA00000200D49C1F8800205E000200549086056
:108EB0000949C1F880020A2300221146104611F028
:108EC000DDFE8FE7A8824042008041428C82414211
:108ED000C4E200201E000020008040422DE9F04145
:108EE00004460D46174606260FBB2E488078F0B183
:108EF00004FB06F00A2190FBF1F0298888420CDA85
:108F000004FB06F00A2190FBF1F01FFA80F8288894
:108F10002A46414609F088FB05E004FB06F00A21D9
:108F200090FBF1F0288001201F49087037E0012FE5
:108F300021D11C480079F0B104FB06F00A2190FB16
:108F4000F1F0298888420CDA04FB06F00A2190FB34
:108F5000F1F01FFA80F828882A46414609F064FBA0
:108F600005E004FB06F00A2190FBF1F028800120C7
:108F70000D49087013E00C48007878B104FB06F046
:108F80000A2190FBF1F01FFA80F82A46214640465C
:108F900009F0CAFA00200449087000E02C80BDE8FE
:108FA000F0810000F89900204402002010B55348D9
:108FB000C07A012801D15249C8715248407801282D
:108FC00011D15048007870B901204D49C8714E4800
:108FD000807840B94D48007828B94DA012F01EFFA6
:108FE00001204A4908704648007820B100204449D1
:108FF00008700120C8714248807810B101204049B2
:1090000008713F48C07810B101203D4908713B48C4
:10901000007B012801D13A4908723A4800780128BA
:109020000AD1374908723C48007828B93BA012F0B1
:10903000F5FE0120384908703148407820B1002001
:109040002F494870012008722D48807810B90020FF
:109050002B4908712A48C07810B9002028490871A6
:109060002948807800283CD12548C079012810D1B2
:109070002348007901280CD12148407928B9294892
:10908000C07910B901202749C87100201C49C87156
:1090900008721B48007A80B91948007901280CD160
:1090A00021480078012808D11E48C07910B9012054
:1090B0001C49C87100201C4908701148007A012819
:1090C00002D00F480079B8B90D48007910B90120D5
:1090D000154908700A48407970B1144809F068FAD7
:1090E0000AE00748007A012802D00548007918B93B
:1090F000002003490872887110BD0000CEDD0020F9
:109100001E000020F899002014E300200700002032
:10911000C6F4B6AF0000000006000020CDA3D6B90B
:1091200000000000140000201D000020CAE2002002
:1091300001200149087070471E00002001200149EC
:10914000487070471E0000202DE9F04105460C468E
:109150000026002D44D10A2094FBF0F001281DD1F7
:10916000274AB2F84810274A908912F08BF918B9AB
:1091700000BF3046BDE8F0810020224908740A2073
:1091800094FBF0F100FB114087B21E4988893946F3
:1091900012F078F980BB00263046EBE70A2094FBFA
:1091A000F0F0022828D10A2094FBF0F100FB1140D6
:1091B00087B214498889394612F064F910B900263B
:1091C0003046D7E700200F4908740D4AB2F848101E
:1091D0000C4A908912F056F970B900263046C9E75A
:1091E00008498889214612F04DF910B90026304609
:1091F000C0E700200349087401263046BAE70000A2
:10920000C4E2002014E3002010B51249B1F89A001E
:1092100019210AF0D5FD0F48B0F8B2000E49888632
:109220000C49B1F8B2001A210AF0CAFD052009491B
:10923000A1F8B6000220A1F8B20002F0CBFD074869
:1092400090F83C000649087014200249A1F840003B
:1092500010BD0000CEDE002084C00020C4E200204B
:1092600014E300202DE9F05F04460D460027002698
:10927000B146A079617940EA0120434909888842D2
:109280007FD1A81E81B2204600F052FD80464FEAF1
:10929000282A08F0FF0BA81E205C504571D1681EDB
:1092A000205C58456DD1207901281BD1E079012837
:1092B00006D0022808D003280AD0042810D10BE0D9
:1092C000204609F049F80CE0204609F0E7F808E0EC
:1092D000204608F0CBFF04E0204609F085F800E0C6
:1092E00000BF4EE0207910280FD1E079022802D08B
:1092F000042808D103E0204608F0A6FF04E0204639
:1093000008F080FF00E000BF3BE02079022838D160
:10931000002734E01D4800EB8720007878B91B490E
:1093200001EB87210D70002606E0A15D174800EBD8
:109330008722701C115486B2AE42F6DB1DE0092F65
:109340001BD14FF0000908E00020104901EB8921F2
:10935000087009F101001FFA80F9B9F10A0FF3DB77
:109360000A490D70002606E0A15D084800EB87223F
:10937000701C115486B2AE42F6DB781C87B20A2FFD
:10938000C8DBBDE8F09F00000405002060600120FC
:109390002DE9F04104460D46A81E81B2204600F09A
:1093A000E4FC0646F7B24FEA1628A81E205CB84235
:1093B00030D1681E205C40452CD16078042817D03D
:1093C00006DC01280BD002280CD003281CD10CE0AD
:1093D000052810D0062811D0102815D111E008F06A
:1093E0003FFC16E008F0B6FC13E008F051FD10E079
:1093F00008F0AAFD0DE008F01FFE0AE008F05CFE90
:1094000007E008F0A5FE04E06078042111F0C6FC36
:1094100000BF35E0607804281DD006DC01280BD0A1
:1094200002280ED003282AD110E0052818D00628DB
:109430001BD0102823D11DE00821012011F0AEFC23
:109440001DE00821022011F0A9FC18E008210320EA
:1094500011F0A4FC13E00821042011F09FFC0EE0A1
:109460000821052011F09AFC09E00821062011F0DE
:1094700095FC04E00821102011F090FC00BF00BF13
:10948000BDE8F0810EB5002400BF35E01B48007830
:10949000F8B11B48C08800281BDD1A488078C0B985
:1094A0001948407978B11649D1ED0A1AB0EE611A1F
:1094B000D1ED091AF0EE610AD1ED081AB0EE610A99
:1094C000C88807F0B3FC642C03DD002002F00BFF1A
:1094D00000240B4890F8380018B90A20084981F890
:1094E000380002A80021CDE90010054890F8383076
:1094F0000A46084604F056FAC8E700007102002048
:10950000C4E2002014E300201E0000201FB56846BE
:1095100008F0F2F9019804B010BD10B52AB1038823
:1095200001248C402343038004E0048801238B4002
:109530009C43048010BD00BFFEE7000010B58CB056
:10954000002403F03FF907AA00218D4800F00CFA2F
:109550000798162810D100BF06E00DF12700005D26
:1095600040B288490855641C9DF82600A042F4DCEE
:10957000844810F0CFFEFEE0079810282ED100247A
:1095800005E00DF12700005D7F490855641C9DF83A
:109590002600A042F5DC7C4800787B49497840EA07
:1095A00001207A490880784800787749497840EA6C
:1095B00001207749C8810846C0898881084680898A
:1095C0007449A1F82C017248408B71490883084600
:1095D000C1894183012070490870CCE007980128B7
:1095E00034D1002405E00DF12700005D6B490855DA
:1095F000641C9DF82600A042F5DC6849891C481EC1
:1096000012F0F2FF66494880488811F02DF965494B
:1096100048805F494878091D11F08EFC5C48037949
:10962000604841880F22684601F0D8FA1C2269463A
:109630005D48FFF787F85C48406918B15A484069AF
:109640005A49486000205A49086094E00798022867
:109650002DD1002405E00DF12700005D5549085586
:10966000641C9DF82600A042F5DC5249891C481E66
:1096700012F0BAFF4A49888045494878091D11F01F
:109680005BFC43480379464881880F22684601F015
:10969000A5FA1C2269464848FFF754F84648406935
:1096A000002868D0444840694049886063E00798D2
:1096B000032831D1002405E00DF12700005D3F496A
:1096C0000855641C9DF82600A042F5DC3B49891C26
:1096D000481E12F089FF3249C880C88811F0C4F8CA
:1096E0003049C8802A494878491D11F011FC2848A2
:1096F00043792C48C1880F22684601F06FFA1C227A
:1097000069462F48FFF71EF82D48406998B32C484A
:1097100040692649C8602EE0079804282BD1002410
:1097200005E00DF12700005D26490855641C9DF8F1
:109730002600A042F5DC2349891C481E12F054FF84
:109740001749088112494878491D11F0E1FB10487A
:109750004379134801890F22684601F03FFA1C2221
:1097600069461948FEF7EEFF1748406918B11648D8
:1097700040690E49086103F03BF80CB010BD0000D1
:1097800000640040CCE30020D0BE0020BE000020DA
:1097900014E30020CEDE0020C0000020E0BE002048
:1097A00020BF002040BF00203CE300202CBF002051
:1097B0008C024042F0BE002058E3002000BF002091
:1097C00074E3002010BF002090E3002010B586B0A5
:1097D000002402F0F7FF01AA0021434800F0C4F87A
:1097E00040F201710198884219D100BF06E00DF1E5
:1097F0000F00015D3D4820F81410641C9DF80E0018
:10980000A042F4DC39481238408A052803D1384890
:10981000407837498870364840783549C87040F2FA
:109820000271019888421AD1002407E00DF10F005F
:10983000015D2E48123020F81410641C9DF80E00B3
:10984000A042F3DC29481238808C052803D128482F
:10985000407827498870264840782549C87040F2EA
:109860000371019888421AD1002407E00DF10F001E
:10987000015D1E48243020F81410641C9DF80E0071
:10988000A042F3DC19481238C08E052803D11848CD
:10989000407817498870164840781549C87040F2DA
:1098A0000471019888421BD1002407E00DF10F00DC
:1098B000015D0E48363020F81410641C9DF80E002F
:1098C000A042F3DC09481238B0F84800052803D15B
:1098D0000748407806498870054840780449C870B0
:1098E00002F086FF06B010BD006800405CBF00209B
:1098F000710200202DE9F04186B0054688461646E3
:1099000000240195029500208DF80C008DF80D00C3
:109910008DF80E6000BF06E018F804100DF10F007E
:109920000155601C84B2B442F6DB01A90D4800F079
:1099300093F80746002401E0601C84B239460948C8
:1099400000F01EF9012803D040F6FF708442F3DBDB
:1099500040F6FF70844203DB012006B0BDE8F081D1
:109960000020FAE70068004010B500F5D87303EB5B
:1099700001131B6803F004031372137A53B900F543
:10998000D87303EB01131B6840F2FF7404EA5353CE
:10999000136009E000F5D87303EB01131B686FF047
:1099A000604404EAD303536000F5D87303EB01135A
:1099B0001B6803F00203537200F5D87303EB011325
:1099C0005B6803F00F03937200F5D87303EB011388
:1099D0005B681B0AD37400F5D87303EB01139B6813
:1099E000D37200F5D87303EB01139B681C0A147340
:1099F00000F5D87303EB01139B681C0C547300F53E
:109A0000D87303EB01139B681B0E937300F5D87397
:109A100003EB0113DB68D37300F5D87303EB011379
:109A2000DB681C0A147400F5D87303EB0113DB68C0
:109A30001C0C547400F5D87303EB0113DB681B0E88
:109A4000937421B9C36843F02003C36003E0036942
:109A500043F02003036110BD10B502460020936857
:109A600003F08063B3F1806F00D110E0936803F0DE
:109A70000063B3F1006F01D1012008E0936803F0A7
:109A80008053B3F1805F01D1022000E0042004285C
:109A900074D002F5C07303EB00131B6803F00104DC
:109AA00002F5C07303EB00131C600B7A7BB94B7A91
:109AB0000C8843EA445302F5C07404EB0014246894
:109AC000234302F5C07404EB0014236010E00B7A0A
:109AD0004C6843EAC4034C7A234302F5C07404EB98
:109AE00000142468234302F5C07404EB00142360BF
:109AF0008B7A03F00F038B7202F5C07303EB001334
:109B00005B6823F00F0402F5C07303EB00135C6085
:109B100002F5C07303EB00135B688C7A234302F5F4
:109B2000C07404EB001463608B7B1C064B7B44EA1F
:109B300003440B7B44EA0323CC7A234302F5C0742D
:109B400004EB0014A3608B7C1C064B7C44EA0344AA
:109B50000B7C44EA0323CC7B234302F5C07404EB63
:109B60000014E36002F5C07303EB00131B6843F0BD
:109B7000010402F5C07303EB00131C6010BD00006C
:109B800010B50246002321B1012907D002290FD1C7
:109B900009E090681D4C00EA04030BE090681C4C3F
:109BA00000EA040306E090681A4C00EA040301E0AE
:109BB000002300BF00BF184C181BA34216D007DCBF
:109BC00083B16FF08060184470B1022818D111E0A1
:109BD000B0F5007F10D0114C204448B1B0F5003FE3
:109BE0000ED10BE002230DE000230BE0002309E07F
:109BF000002307E0012305E0012303E0012301E046
:109C0000002300BF00BFD8B210BD00000300000455
:109C10000003000800000310000100080001FFF726
:109C20002DE9F04106460D4617460024012428E0A0
:109C300036F8140018B9601C36F81000B0B135F8C9
:109C4000140098B9601C35F8100078B90A2011F09A
:109C5000D9FF35F8140048B9601C35F8100028B950
:109C6000385D642802DA385D401C385535F8140038
:109C700026F81400601C35F8101026F81010A01CEF
:109C8000C4B2052CD4DBBDE8F08110B500F020F89B
:109C900000F01AF810BD000010B5002400BF00BF8E
:109CA000FEF718FB044600BF00BF1021054802F074
:109CB000D1FA00BF00BF2046FEF710FB00BF00BF77
:109CC00010BD00002CF2002010B5FFF7E5FF10BD1D
:109CD00010B500200249086000F00AF810BD00002D
:109CE0005003002001490860704700005003002025
:109CF00010B5FFF70BFC04460848006840F0807080
:109D0000064908600020064948600846006840F09F
:109D1000010008602046FFF7E5FF10BDFCED00E004
:109D2000001000E00149486870470000001000E0A2
:109D300030B502460B464FF6FF70002112E0555C2D
:109D4000684000240AE000F0010525B140104AF205
:109D50000105684000E04010651CACB2082CF2DB45
:109D60004D1CA9B29942EADB30BD30B502460B4624
:109D70004FF6FF70002112E0555C684000240AE0B5
:109D800000F0010525B140104AF20105684000E0ED
:109D90004010651CACB2082CF2DB4D1CA9B29942F4
:109DA000EADB30BD00201A49488688868887C88744
:109DB000C88640F29A20A1F804010020A1F84800CA
:109DC000144981F83C001249A1F88600114981F834
:109DD0003E0081F83F0001200D49A1F87800A1F86C
:109DE0007A00A1F87C00A1F87E000020094981F8E2
:109DF000420081F8350001200549A1F85A000549C3
:109E000081F8330000200249A1F858007047000093
:109E1000CEDE0020CEDD002001200449A1F8A00004
:109E20000020A1F8A200A1F8A4007047CEDE002017
:109E300070B505460E4600242C4608E0064830F86A
:109E400014202146002007F06FFC601CC4B2701C77
:109E50008442F3DB70BD0000200500202DE9FE4F99
:109E600004460E4617464FF4FA7B4FF000080025D3
:109E7000A946AA46012C02D1DFF8A48103E0022CF6
:109E800001D1DFF8A08180E06748007B012806D07F
:109E900066480078012802D06548007900B980E062
:109EA0006448858886BBB9F1000F16D162480089E5
:109EB000624909780844A84203DA384611F0A0FC48
:109EC0005AE0032002F00FFA042002F00CFA3846A0
:109ED00011F0AAFC4FF001094EE0BAF1000F14D1C5
:109EE0005548408955490978401AA84203DD38464B
:109EF00011F09AFC40E0032002F0F5F9042002F092
:109F0000F2F94FF0010A37E002E000F0E3FC48E02C
:109F1000BAF1000F16D14848408948490978401ADB
:109F2000A84203DD384611F07FFC25E0032002F053
:109F3000DAF9042002F0D7F9384611F061FC4FF04D
:109F4000010A19E0B9F1000F13D13B4800893B49E0
:109F500009780844A84203DA384611F051FC0BE0B6
:109F6000032002F0C0F9042002F0BDF94FF001090E
:109F700002E000F0AFFC14E002A800210A230A4628
:109F8000CDE90010084603F00DFD98F80000022806
:109F900007DABBF10000ABF101011FFA81FB7FF48E
:109FA00073AF00BF98F8000002280BDB012C03D12F
:109FB0000120234988702AE0022C28D10120204961
:109FC000C87024E0032002F08EF9042002F08BF91F
:109FD000012C0DD100201A4988700120194988767A
:109FE0001948038800221146104610F047FE0EE083
:109FF000022C0CD100201249C87001201149C876EA
:10A000001148038800221146104610F037FE032045
:10A0100002F069F9042002F066F9BDE8FE8F000045
:10A0200086E30020A2E30020CEDD0020F899002086
:10A030001E000020B6000020A0BD00201C00002053
:10A0400014000020ACBD0020BC0000202DE9F05F12
:10A0500004460E4617464FF4FA7B4FF000080025E1
:10A06000A946AA46012C02D1DFF89C8103E0022C0C
:10A0700001D1DFF898817DE06548007B012806D09A
:10A0800064480078012802D06348007900B97DE077
:10A090006248458886BBB9F1000F16D160484088F8
:10A0A000604909780844A84203DA384611F0B6FD41
:10A0B0005AE0012002F017F9022002F014F93846A4
:10A0C00011F0C0FD4FF001094EE0BAF1000F14D1BC
:10A0D0005348808853490978401AA84203DD38461E
:10A0E00011F0B0FD40E0012002F0FDF8022002F086
:10A0F000FAF84FF0010A37E002E000F055FC45E0C5
:10A10000BAF1000F16D14648808846490978401AAE
:10A11000A84203DD384611F095FD25E0012002F04C
:10A12000E2F8022002F0DFF8384611F077FD4FF038
:10A13000010A19E0B9F1000F13D1394840883949B3
:10A1400009780844A84203DA384611F067FD0BE0AD
:10A15000012002F0C8F8022002F0C5F84FF0010912
:10A1600002E000F021FC11E00A2300221146104613
:10A1700010F084FD98F80000022807DABBF1000017
:10A18000ABF101011FFA81FB7FF476AF00BF98F8B5
:10A19000000002280BDB012C03D1012022490870AA
:10A1A0002AE0022C28D101201F49487024E0012018
:10A1B00002F099F8022002F096F8012C0DD100204F
:10A1C00019490870012019490876194803880022A6
:10A1D0001146104610F052FD0EE0022C0CD100206A
:10A1E000114948700120114948761148038800221E
:10A1F0001146104610F042FD012002F074F80220D2
:10A2000002F071F8BDE8F09F4EE300206AE3002001
:10A21000CEDD0020F89900201E000020B6000020AE
:10A22000A0BD00201C00002014000020ACBD0020B8
:10A23000BC0000200EB5002400250026002700BF2A
:10A2400000BF00F0A7FD52E0701C86B2B6F5FA7FA1
:10A2500002DD00F09FFD00262548B0F86600254984
:10A260004978884215DC0120234948712148427809
:10A2700022A12948FEF752F8781C87B2B7F5FA7F79
:10A280000ADD2648007A10B9234811F0C7FD0027DF
:10A2900002E00020184948712148007858B1012097
:10A2A00020490860681C85B2192D04D1002008607F
:10A2B0001B4908700025601C84B2322C05D1002097
:10A2C00019490860012019494870642C06D1012001
:10A2D00015490860002015494870002402A8002193
:10A2E0000A230A46CDE90010084603F05BFBABE702
:10A2F000CEDE0020AC00002036020020B5E7C1BF52
:10A30000C9D9D3DAB0D9B7D6D6AE25642CC7EBBC41
:10A31000B0CAB1B3E4B5E70032BA0020C4E200200D
:10A32000C00000208C024042A0824042CEDD0020CE
:10A3300010B502F047FA0B490B4800F03DF968B13F
:10A34000012240F2266109480AF0CCFF054906487F
:10A3500000F05CF80021044800F072F802F048FABE
:10A3600010BD00002080002070600240004C0040C2
:10A370002DE9F0412DED048B00260025002402F08C
:10A3800021FA1C491C4800F017F968B300BF25E00A
:10A39000002509E005EB4500184901EB400030F8C5
:10A3A00014000644681CC5B2642DF3DB6420B6FBC0
:10A3B000F0F7384612F0D9FB41EC190B9FED100B6A
:10A3C00053EC102B12F04CFA41EC180B12F0A0FBDE
:10A3D0000D4921F814000026601CC4B2032CD7DB01
:10A3E0000449054800F012F802F002FABDEC048BB3
:10A3F000BDE8F081208000101064024038BB0020CE
:10A400003D0AD7A370BD2640B60000200246094B86
:10A410009A4201D2084801E00648103801F0005382
:10A420001BB1064B0B40C36002E0044B0B40836042
:10A430007047000010640240006002407D0F7D0FF5
:10A4400021B1026842F00102026003E0026822F0DA
:10A450000102026070470000016821F00101016003
:10A460000021016041608160C16001612121416181
:10A470004A49884204D13D21484A103A91608CE013
:10A4800046491831884205D14FF47461434A103A65
:10A49000916082E041493031884205D14FF4741116
:10A4A0003E4A103A916078E03C494831884205D1F3
:10A4B0004FF07461394A103A91606EE0374960316B
:10A4C000884204D13649354A103AD16065E03349B3
:10A4D0007831884204D13349304A103AD1605CE087
:10A4E0002E499031884204D12F492C4A103AD1602C
:10A4F00053E02A49A831884205D14FF03D51274AFF
:10A50000103AD16049E02949884204D13D21274AC7
:10A51000083A116041E025491831884205D14FF4CD
:10A520007461224A083A116037E02049303188428C
:10A5300005D14FF474111D4A083A11602DE01B49F2
:10A540004831884205D14FF07461184A083A1160C9
:10A5500023E016496031884204D11149134A121F81
:10A5600011601AE011497831884204D10D490F4A2F
:10A57000121F116011E00D499031884204D10A493F
:10A580000A4A121F116008E00849A831884204D124
:10A590004FF03D51054A121F116070471060024094
:10A5A0003D000020400F002000003D2010640240CC
:10A5B0000146486880B2704770B50246002000240A
:10A5C0000025124EB24201D2114B01E00F4B103B5D
:10A5D000104E0E4036B11E2606EAD124166806EA51
:10A5E000040502E0566906F0800501F000560EB140
:10A5F0005C6800E01C68084E344004EA010616B1AD
:10A600000DB1012000E0002070BD00001064024088
:10A61000006002403C0F3C0F7D0F7D0F10B501F034
:10A6200080034BB122B1436943F08003436103E0EF
:10A63000436923F08003436180290BD02AB103686A
:10A6400001F01E042343036004E0036801F01E04CC
:10A65000A343036010BD000010B500220268134B35
:10A660001A40CC680B6823434C6923438C6923430D
:10A67000CC6923430C6A23434C6A23438C6A2343EB
:10A680004C6B23438C6B23431A430260426922F0D4
:10A690000702D1E90B3423431A4342610B6943603B
:10A6A0004B6883608B68C36010BD00003F801CF066
:10A6B0004160704700B591B00121480507F0BCF832
:10A6C00000211F48FFF7BCFE1D48FFF7C5FE4FF0F5
:10A6D000006001901B4802901B48039000200490EA
:10A6E00080200590002006904FF4806007900020A5
:10A6F000089009904FF480700A9000200C9003207D
:10A700000D9000040B9000200E900F9001A90C48B2
:10A71000FFF7A2FF01210A48FFF792FE0C208DF8F7
:10A72000400002208DF8410003208DF842000120F6
:10A730008DF8430010A801F09DFE11B000BD00008F
:10A740002860024004480040B2B9002000B591B032
:10A750000121480507F070F800213A48FFF770FE24
:10A760003848FFF779FE4FF00060019036480290BC
:10A770003648039040200490FA200590002006906F
:10A780004FF4806007900020089009904FF480708B
:10A790000A9000200C9003200D9000040B900020E4
:10A7A0000E900F9001A92748FFF756FF002125487A
:10A7B000FFF746FE012210212248FFF72FFF00215C
:10A7C00020483038FFF73CFE1E483038FFF744FE83
:10A7D0004FF0006001901C4802901D48039000203B
:10A7E0000490FA200590002006904FF480600790B6
:10A7F0000020089009904FF480700A9000200C907F
:10A8000003200D9000040B9000200E900F9001A9E2
:10A810000C483038FFF720FF01210A483038FFF795
:10A820000FFE0F208DF8400003208DF8410001201D
:10A830008DF842008DF8430010A801F01BFE11B006
:10A8400000BD000070600240044C0040CEE00020DB
:10A85000C8E1002000B58FB00121880506F0ECFFAB
:10A8600000211948FFF7ECFD1748FFF7F5FD002020
:10A8700000901648019016480290002003904FF473
:10A8800096700490002005904FF480600690400080
:10A8900007900890C010099000200B9003200C90A6
:10A8A00000040A9000200D900E9069460648FFF7BC
:10A8B000D3FE012210210448FFF7B0FE0121024817
:10A8C000FFF7BEFD0FB000BD106402404C200140F8
:10A8D00038BB00207CB54FF49675002000900190A5
:10A8E0002C4880882C494880084640882B49C988D4
:10A8F000401A019036E00120294908602648408826
:10A900002649C98888420BDD019C002C01DB2146C9
:10A9100000E06142234A128B514388B210F070FF6D
:10A920001D4840881D49C98888420BDA019C002CCB
:10A9300001DB214600E061421A4A128B514388B282
:10A9400010F072FF134880881349488008464088F9
:10A950001249C988401A01900A2300221146104664
:10A9600010F08CF90198002801DB014600E041421B
:10A97000032904DD291EA5F1010295B2BBD10320F4
:10A9800001F0B1FC042001F0AEFC00200449086095
:10A990007CBD0000B60000200E000020A0BD0020FD
:10A9A0008C024042C4E200207CB54FF49675002032
:10A9B000009001902C4840882C4908800846008867
:10A9C0002B490988401A009036E001202949086087
:10A9D000264800882649098888420BDD009C002C07
:10A9E00001DB214600E06142234A128B514388B2C9
:10A9F00011F014F91D4800881D49098888420BDAB6
:10AA0000009C002C01DB214600E061421A4A128BB7
:10AA1000514388B211F016F9134840881349088051
:10AA20000846008812490988401A00900A2300222B
:10AA30001146104610F022F90098002801DB01466B
:10AA400000E04142032904DD291EA5F1010295B26F
:10AA5000BBD1012001F047FC022001F044FC0020A2
:10AA6000044908607CBD0000B60000200E000020F4
:10AA7000A0BD00208C024042C4E2002070470000CC
:10AA800001490860704700001005002070B5454876
:10AA9000B0F89C0000287CDD4248B0F89C000028FB
:10AAA00027DD4048B0F89C003E49B1F89E1088422E
:10AAB0001FD03C48B0F89E4016E0002510E004EBA3
:10AAC0008400394901EB400030F81510601E00EB9E
:10AAD0008000354A02EB400020F81510681C85B252
:10AAE000052DECDB601C84B22E48B0F89C00A0421F
:10AAF000E3DC2C48B0F89C00401E2A49A1F89C00D9
:10AB00000846B0F89C0018B90020A1F89E000FE09C
:10AB10002448B0F89C00401C2249B1F89E1088429D
:10AB200006D12048B0F89E00401E1E49A1F89E00A4
:10AB3000002415E01B4AB2F89A20521E1B4B4FF41A
:10AB4000FA7606FB0232052303FB042104EB8402A0
:10AB5000154B03EB420005220FF028F8601C84B26D
:10AB60001048B0F89C00A042E4DC0E48B0F89C10FD
:10AB7000B0F89A00401E0E4A22F81010094AB2F8A6
:10AB80009A200C4BD118074AB2F89A20521E084B53
:10AB900000E006E003EB420001220FF007F80EF0A0
:10ABA000D5F970BDCEDE0020E6D800208E460F001D
:10ABB000FED4002099440F0010B5FFF7F5FE642382
:10ABC00000221146104610F059F8FFF783FE0120CD
:10ABD0000149087010BD0000120000202DE9FF4F50
:10ABE00087B0884691469A460024D3466FEA08000B
:10ABF00085B20026002700BF00208DF800008DF8E8
:10AC000011008DF8120005908DF81800002600271D
:10AC100000240CE045FA04F000F0010028B19DF892
:10AC20001200401CC0B28DF81200601C84B2102CBF
:10AC3000F0DB00240AE045FA04F000F0010010B94E
:10AC4000701C86B200E01024601C84B2102CF2DB71
:10AC500000240AE005FA04F000F4004010B9781C62
:10AC600087B200E01024601C84B2102CF2DB344662
:10AC700011E045FA04F000F0010050B99DF8002001
:10AC80000DF1010084549DF80000401CC0B28DF805
:10AC90000000601C84B2C7F11000A042E9DC9DF8FE
:10ACA000000000281FDD01208DF811009DF8000034
:10ACB000012818DD002411E00DF10100611C415C48
:10ACC000005D081A012800D106E09DF81100401C23
:10ACD000C0B28DF8110000BF601C84B29DF8000066
:10ACE000401EA042E8DC9DF8120028B91020059013
:10ACF00001208DF818003EE09DF80000002830DDAE
:10AD00009DF81100012836D1BBF1020F10D1344655
:10AD10000BE045FA04F000F0010018B10120A0405A
:10AD2000854300E01024601C84B2102CF1DB63E743
:10AD3000BBF1010F11D13C460CE005FA04F000F420
:10AD4000004020B14FF400402041854300E0102432
:10AD5000601C84B2102CF0DB4EE701208DF8180047
:10AD600009E09DF81200484502DCB81B059002E09E
:10AD700001208DF818001C2269460548FDF7E2FC09
:10AD80001C2269460798FDF7DDFC0BB0BDE8F08F8B
:10AD900068C0002010B50722074908480AF032FBB6
:10ADA00064230022114610460FF068FF0722024973
:10ADB00002480AF027FB10BD2C000020004800408C
:10ADC000F0B50A4600210023002400BF3DE0012524
:10ADD00005FA01F3156805EA03049C4234D10568BD
:10ADE0004F000326BE40B543056015794E00B540BF
:10ADF0000668354305601579012D02D01579022DBD
:10AE000016D185684F000326BE40B543856055794D
:10AE10004E00B540866835438560456801268E4002
:10AE2000B5434560456896798E40B6B23543456076
:10AE3000C5684F000326BE40B543C560D5794E00B6
:10AE4000B540C6683543C560491C1029BFD3F0BD65
:10AE5000F0B5002300244D07ED0E02FA05F3CE10E5
:10AE600000F1200555F826504E07F70E0F26BE407C
:10AE7000B543CF1000F1200646F82750CE1000F160
:10AE8000200555F8265045EA0304CE1000F12005B0
:10AE900045F82640F0BD41837047018370470000AC
:10AEA00010B56522002102480EF0F6FD10BD00002D
:10AEB00084C0002070B50024344AB2F89A20344B84
:10AEC000D118324AB2F89A20521E324B03EB42009C
:10AED00001220EF0E1FD2D48B0F89A00401E2D49E8
:10AEE00031F810002949A1F89C000120A1F89E002A
:10AEF0000846B0F89C00642804DD0020A1F89C00FE
:10AF0000A1F89E00002415E0204AB2F89A20521EB3
:10AF1000214B4FF4FA7505FB0232052303FB042194
:10AF200004EB84021D4B03EB420005220EF0B4FD3E
:10AF3000601C84B21548B0F89C00A042E4DC1348C1
:10AF4000B0F89E00401E00EB8000144931F810005C
:10AF50000E49A1F8A0000846B0F89E00401E00EB84
:10AF600080000E4901EB400040880849A1F8A2008A
:10AF70000846B0F89E00401E00EB8000074901EB38
:10AF8000400080880149A1F8A40070BDCEDE0020F9
:10AF900099440F00FED400208E460F00E6D8002012
:10AFA00070B5044600252F4AA118621E2E4B03EBF4
:10AFB000420001220EF070FD601E2B4931F8100096
:10AFC0002A49A1F89C000120A1F89E000846B0F88B
:10AFD0009C00642804DD0020A1F89C00A1F89E00DC
:10AFE000002512E0621E224B4FF4FA7606FB023275
:10AFF000052303FB052105EB85021E4B03EB4200F5
:10B0000005220EF049FD681C85B21848B0F89C0076
:10B01000A842E7DC1548B0F89E00401E00EB800017
:10B02000144931F810001149A1F8A0000846B0F801
:10B030009E00401E00EB80000E4901EB400040885E
:10B040000A49A1F8A2000846B0F89E00401E00EB95
:10B050008000084901EB400080880449A1F8A40061
:10B0600070BD000099440F00FED40020CEDE002009
:10B070008E460F00E6D8002010B50446064AA118F7
:10B08000621E064B03EB420001220EF005FD601E1E
:10B09000024931F8100010BD99440F00FED4002081
:10B0A000F0B5059C002504EB84060E4F07EBC606A1
:10B0B00076891E8016880EB115880D8010800A4E84
:10B0C000378F661CB7420BDD16881F88BE4207D13A
:10B0D000661C06EB8606034F07EBC60676891E80C4
:10B0E000F0BD000036C50020CEDE002070B505465C
:10B0F000284600F025F80F490887002412E06A1E50
:10B100004FF4FA635A4302F25922142303FB042139
:10B1100004EB8402084B03EBC20014220EF0BCFCCB
:10B12000601C84B2681E054931F81000A042E6DCBC
:10B1300070BD0000CEDE002036C500204EC10020CC
:10B1400010B5044604F16401621E0B4B03EB420090
:10B1500001220EF0A1FC601E074931F8100064289E
:10B1600004DD0021601E044A22F81010601E02490E
:10B1700031F8100010BD00004EC1002070B505462A
:10B180000C461148857501201049A1F8B2000A2328
:10B190000022114610460FF071FD20880C49C88727
:10B1A00014200A49A1F840000A2300221146104643
:10B1B0000FF064FD0020044988700A230022114624
:10B1C00010460FF05BFD70BD14E30020CEDE0020C2
:10B1D000C4E200202C48B0F866002C4909680880B9
:10B1E0002B4800882949496808802948C088274990
:10B1F00089680880274840782449C968088026481B
:10B200004079224909690880244880781F494969A2
:10B210000880224800781D49896908801F484078C5
:10B220001A49C96908801E4840881849096A088077
:10B230001C4880881549496A08801948C088134904
:10B24000896A0880174800891049C96A0880164829
:10B25000007808B9012000E000200C49096B088043
:10B260001248007A0949496B08801048407A07491A
:10B27000896B08800E4800780D49497840EA012022
:10B280000249C96B08807047CEDE0020F80200201A
:10B29000AE000020AC000020C4E2002014E3002037
:10B2A00040BF002020BF002071020020F89900203C
:10B2B000D0BE002000B54148007810B93F48407822
:10B2C00050B13F490122086A1146FEF726F90220D3
:10B2D0003C49A1F8B60005E039490022086A01217D
:10B2E000FEF71BF93548807850B135490122086ACC
:10B2F0000221FEF712F906203249A1F8B60005E056
:10B300002F490022086A0221FEF707F92B48C0786E
:10B3100010B92A48007950B129490122086A03214D
:10B32000FEF7FBF802202749A1F8B60005E0244902
:10B330000022086A0321FEF7F0F82048407930B176
:10B340001F490122086A0421FEF7E7F805E01C49BD
:10B350000022086A0421FEF7E0F81848807968B1F5
:10B3600017490122086A0521FEF7D7F8012016497E
:10B3700081F85C001349A1F8B60009E010490022E9
:10B38000086A0521FEF7C9F800200F4981F85C0022
:10B390000A48C07950B10A490122086A0621FEF71D
:10B3A000BCF803200749A1F8B60005E004490022D3
:10B3B000086A0621FEF7B1F800BD00003602002041
:10B3C00080020020CEDE0020CEDD002010B5044635
:10B3D0007CB101200F4908600F49C1F890020F4964
:10B3E00088700F4803880022114610460FF046FC73
:10B3F0000FE00020074908600749C1F890020120CA
:10B4000006490871064803880022114610460FF0CD
:10B4100035FC10BD9402414200004142ACBD002009
:10B42000BC00002070B504460D4625B1012D03D0A7
:10B43000022D7DD1DAE0B2E10120DA49087004EB97
:10B440008400D94901EBC000018AD8484088401ED9
:10B4500000EB8000D64A52F8300001800121D34829
:10B460004088401E00EB800002EBC0004068018075
:10B47000CE484088401E00EB8000114651F8300055
:10B480000088CA49B1F84810884224D1C748C08F03
:10B490000A2190FBF1F001280AD10221C34840881B
:10B4A000401E00EB800002EBC0004069018055E0C7
:10B4B000BE48C08F0A2190FBF1F002284ED1012135
:10B4C000BA484088401E00EB8000B94A02EBC00039
:10B4D0004069018042E0B5484088401E00EB800092
:10B4E000B34951F830000088012827D0AF48408880
:10B4F000401E00EB800051F83000008802281DD06B
:10B50000AA484088401E00EB800051F830000088B7
:10B51000032813D0A5484088401E00EB800051F856
:10B5200030000088042809D004EB84009E4900E024
:10B5300034E101EBC000008A05280FD19B48C08F81
:10B540000A2190FBF1F081B298484088401E00EB40
:10B550008000974A02EBC0004069018001209549B4
:10B56000887414230022114610460FF087FB00F068
:10B570004BF901208F49087414230022114610460C
:10B580000FF07CFB00F0B2F9002188484088401E93
:10B5900000EB8000864A52F83000018083484088E2
:10B5A000401E00EB800002EBC000406801807F4835
:10B5B0004088401E00EB800002EBC0004069018023
:10B5C0007A484088401E00EB800002EBC000806893
:10B5D000018076484088401E00EB800002EBC000EE
:10B5E000C068018000206F490870D8E001206D49D3
:10B5F000087004EB84006C4901EBC000018A6B48C1
:10B600004088401E00EB8000694A52F830000180FB
:10B61000012166484088401E00EB800002EBC0001C
:10B620004068018061484088401E00EB8000114660
:10B6300051F8300000885D49B1F84810884224D1A3
:10B640005A48C08F0A2190FBF1F001280AD102214B
:10B6500056484088401E00EB800002EBC000406965
:10B66000018053E05148C08F0A2190FBF1F002287D
:10B670004CD101214D484088401E00EB80004C4ACF
:10B6800002EBC0004069018040E048484088401E0D
:10B6900000EB8000464951F830000088012825D091
:10B6A00042484088401E00EB800051F8300000887E
:10B6B00002281BD03D484088401E00EB800051F816
:10B6C00030000088032811D038484088401E00EB25
:10B6D000800051F830000088042807D004EB840073
:10B6E000314901EBC000008A05280FD12F48C08FD7
:10B6F0000A2190FBF1F081B22C484088401E00EBFB
:10B7000080002B4A02EBC0004069018001202949DA
:10B71000C87414230022114610460FF0AFFA00F04F
:10B7200079F9012023494874142300221146104658
:10B730000FF0A4FA00F0E0F900211C484088401EF8
:10B7400000EB80001A4A52F8300001801748408808
:10B75000401E00EB800002EBC000406801801348EF
:10B760004088401E00EB800002EBC0004069018071
:10B770000E484088401E00EB800002EBC00080684D
:10B7800001800A484088401E00EB800002EBC000A8
:10B79000C068018000200349087000E000BF00BFBE
:10B7A00070BD00003202002036C50020C4E2002037
:10B7B000A8020020ACBD002010B5044664B10120F1
:10B7C0000E4908600E49C8700E48038800221146D1
:10B7D00010460FF053FA0CE00020084908600120E1
:10B7E00007490871074803880022114610460FF0E8
:10B7F00045FA00200149091F086010BD940241422A
:10B80000ACBD0020BC00002010B505E014230022D0
:10B81000114610460FF032FA31484088401E00EBC6
:10B820008000304901EBC000806900880028EDD01D
:10B830000120FFF7CBFD05E014230022114610463E
:10B840000FF01CFA2848007A0028F5D06423002263
:10B85000114610460FF012FA05E01423002211469B
:10B8600010460FF00BFA2048007A0028F5D005E0CA
:10B8700014230022114610460FF000FA1A48007AED
:10B880000028F5D164230022114610460FF0F6F986
:10B8900005E014230022114610460FF0EFF912487C
:10B8A000007A0028F5D105E0142300221146104645
:10B8B0000FF0E4F90A484088401E00EB8000094977
:10B8C00001EBC000C06900880028EDD00020FFF720
:10B8D0007DFD00230122194618460FF0CFF910BD57
:10B8E000C4E20020A8020020F899002010B54648C4
:10B8F000408F052190FBF1F0C4B205E01423002233
:10B90000114610460FF0BAF93F484088401E00EB40
:10B9100080003E4901EBC000006A00880028EDD09D
:10B92000012139484088401E00EB8000374A02EB75
:10B93000C000806801800120FFF73EFF05E014236E
:10B940000022114610460FF099F93148007A00287C
:10B95000F5D064230022114610460FF08FF905E060
:10B9600014230022114610460FF088F92848007A67
:10B970000028F5D005E014230022114610460FF0F0
:10B980007DF92348007A0028F5D16423002211466E
:10B9900010460FF073F905E01423002211461046FB
:10B9A0000FF06CF91A48007A0028F5D105E005235C
:10B9B0000022114610460FF061F91548407A20B96F
:10B9C000201EA4F10101CCB2F1D105E01423002224
:10B9D000114610460FF052F90D48007A0028F5D1B3
:10B9E000FFF7EAFE012108484088401E00EB800076
:10B9F000064A02EBC000C0680180002301221946FC
:10BA000018460FF03BF910BDC4E20020A802002048
:10BA1000F899002010B505E01423002211461046C5
:10BA20000FF02CF931484088401E00EB800030496F
:10BA300001EBC000806900880028EDD00120FFF7ED
:10BA4000BBFE05E014230022114610460FF016F944
:10BA50002848407A0028F5D0642300221146104679
:10BA60000FF00CF905E014230022114610460FF0E8
:10BA700005F92048407A0028F5D005E0142300227B
:10BA8000114610460FF0FAF81A48407A0028F5D10E
:10BA900064230022114610460FF0F0F805E014234D
:10BAA0000022114610460FF0E9F81248407A0028AB
:10BAB000F5D105E014230022114610460FF0DEF800
:10BAC0000A484088401E00EB8000094901EBC00095
:10BAD000C06900880028EDD00020FFF76DFE00232C
:10BAE0000222194618460FF0C9F810BDC4E2002022
:10BAF000A8020020F899002010B54648408F052183
:10BB000090FBF1F0C4B205E0142300221146104668
:10BB10000FF0B4F83F484088401E00EB80003E49DB
:10BB200001EBC000006A00880028EDD001213948EF
:10BB30004088401E00EB8000374A02EBC00080685E
:10BB400001800120FFF742FC05E01423002211468A
:10BB500010460FF093F83148407A0028F5D064235E
:10BB60000022114610460FF089F805E01423002248
:10BB7000114610460FF082F82848407A0028F5D088
:10BB800005E014230022114610460FF077F82348F1
:10BB9000407A0028F5D164230022114610460FF0A8
:10BBA0006DF805E014230022114610460FF066F8E8
:10BBB0001A48407A0028F5D105E0052300221146F5
:10BBC00010460FF05BF81548007A20B9201EA4F14A
:10BBD0000101CCB2F1D105E0142300221146104638
:10BBE0000FF04CF80D48407A0028F5D1FFF7EEFB36
:10BBF000012108484088401E00EB8000064A02EB05
:10BC0000C000C068018000230222194618460FF0C8
:10BC100035F810BDC4E20020A8020020F8990020E9
:10BC200001464869806880B2704708B50146D1F87E
:10BC3000CC00006800900098C0F3414008BD024667
:10BC400002F29B30405C7047024602F5547050F897
:10BC50002100704770B504460E4600250021C4F847
:10BC6000101300BF0BE0002104F5457040F82510CB
:10BC70003C3040F825103C304155681CC5B20F2DB2
:10BC8000F1DB0821A4F8B213314620460CF084F908
:10BC900020460BF08BFD20460BF052FC0121204684
:10BCA0000CF0E2F920460BF0DEFC20460BF0D7FD4D
:10BCB000002070BD0146D1F81003704710B504464E
:10BCC00020460CF048F9002010BD70B504460D4622
:10BCD000002104F29B304155113000EB45104161C9
:10BCE000294620460BF0E6FF70BD00BFFEE70000CE
:10BCF00070B50446144806880088401C1249088024
:10BD00004FF480611148FCF74FFD30120F49087065
:10BD10004E700F480088001288700D480078C87077
:10BD200000200871201248718C7107210748FDF727
:10BD3000FFFF054628120549C8710D720921034805
:10BD400007F0C0FF70BD00001C05002060980120B6
:10BD5000040500202DE9F047074688460024002608
:10BD600000253846FCF78AFC1FFA80F900BF2CE05A
:10BD70007C5D681C3E5C302C05DB392C03DCA4F1B7
:10BD8000300084B206E0412C04DB462C02DCA4F136
:10BD9000370084B2302E05DB392E03DCA6F13000EB
:10BDA00086B206E0412E04DB462E02DCA6F1370007
:10BDB00086B206EB0411284605EBD072521008F843
:10BDC0000210681C85B2681C85B24D45D0DBBDE809
:10BDD000F087000010B50E48B0F8B200022805D177
:10BDE000FFF768F80B480088094908860849088E5B
:10BDF000FFF7A6F9064908870020A1F80401088E7C
:10BE0000FFF774F9044840890149A1F8B40010BD56
:10BE1000CEDE0020E6D8002036C5002010B5012077
:10BE20000549087005490872054803880022114633
:10BE300010460EF023FF10BD14E30020ACBD00201F
:10BE4000BC0000200A490988B1F5006F08DA0849EA
:10BE50000A880988491C064B19800649885406E05F
:10BE600005490A7802490988491E024B5A5470470D
:10BE700008050020605801201505002010B5014676
:10BE80001B4A1268521A1A4B9A601A469268DB686B
:10BE9000D21A00EE102AB8EEC00A154AD2ED050AF1
:10BEA00020EE200A92ED061AD2ED020AF8EEE00A20
:10BEB00001EE200A92680E4BDB68022404FB132279
:10BEC0000B4B1B691A4400EE902AF8EEE00A084A70
:10BED00092ED071A01EE200ABDEEC00A10EE100A1C
:10BEE000D268034B1A611A469268DA6010BD0000EE
:10BEF000B8BF002010B501461B4A1268521A1A4BEF
:10BF00009A601A469268DB68D21A00EE102AB8EEE0
:10BF1000C00A154AD2ED050A20EE200A92ED061A53
:10BF2000D2ED020AF8EEE00A01EE200A92680E4B0A
:10BF3000DB68022404FB13220B4B1B691A4400EE3E
:10BF4000902AF8EEE00A084A92ED071A01EE200A5C
:10BF5000BDEEC00A10EE100AD268034B1A611A46F1
:10BF60009268DA6010BD0000D8BF00200149088047
:10BF7000704700000405002070B53C48B0F89C10E4
:10BF8000B0F89A00401E3A4A22F81010374AB2F828
:10BF90009A20384BD118354AB2F89A20521E344BA9
:10BFA00003EB420001220DF001FE3048B0F89C4046
:10BFB00017E0002511E0A01E00EB80002E4901EBE8
:10BFC000400030F81510601E00EB80002A4A02EB9A
:10BFD000400020F81510681C85B2052DEBDB601EB3
:10BFE00084B22248B0F89E00A042E2DD1F48B0F8BB
:10BFF000A010B0F89E00401E00EB80001E4A22F800
:10C0000010101A48B0F8A210B0F89E00401E00EBC5
:10C01000800002EB400041801448B0F8A410B0F852
:10C020009E00401E00EB800002EB40008180002457
:10C0300015E00E4AB2F89A20521E104B4FF4FA76D1
:10C0400006FB0232052303FB042104EB84020A4BA6
:10C0500003EB420005220DF0A9FD601C84B20348E9
:10C06000B0F89C00A042E4DC70BD0000CEDE0020F1
:10C07000FED4002099440F00E6D800208E460F0021
:10C080001CB50121022005F0D7FB0121102005F08D
:10C09000D3FB4FF44070009001208DF80400002085
:10C0A0008DF8060003208DF8050001208DF80700AB
:10C0B00069460F48FEF784FE4FF440710C48FEF7C6
:10C0C000ECFE0320009001208DF8040000208DF884
:10C0D000060003208DF8050001208DF80700694651
:10C0E0000448FEF76DFE03210248FEF7D6FE1CBD94
:10C0F000000402400010024070B504460D46012CB9
:10C1000006D0022C09D0032C0CD0042C14D10EE044
:10C110002946012000F004F90FE02946022000F032
:10C1200031F90AE02946032000F0FAF805E0294633
:10C13000042000F027F900E000BF00BF70BD70B51B
:10C1400004460D46012C06D0022C09D0032C0CD03D
:10C15000042C14D10EE02946012000F013F90FE061
:10C160002946022000F0DCF80AE02946032000F00E
:10C1700009F905E02946042000F0D2F800E000BFEC
:10C1800000BF70BD00BF55E02B480078002841D0AB
:10C190002A48807800283DD02948408A322827DD67
:10C1A0002748007C20B327488079C0B10020264969
:10C1B0000870264A92ED0D1AF0EE410A92ED0C1A23
:10C1C000BCEEC11A11EE102A91B2204A92ED0B1A60
:10C1D000B0EE410A1A4A508A05F0B2F81AE000207F
:10C1E00000F081F818480078A0B9FEF7E5FC11E0EE
:10C1F000002000F078F81448007808B9FEF7DCFC5D
:10C200001048007918B900200E49887102E0012019
:10C210000C4988710D4890F8380018B90A200B496C
:10C2200081F83800094890F838300022114610464D
:10C230000EF024FDA8E700007102002014E30020A6
:10C24000CCE300201E00002012000020C4E20020E9
:10C2500000BFFEE730B505460C46224600212846C1
:10C2600000F001F830BD2DE9F04105460B4694463B
:10C270000027002402E03F021F43641C042CFAD371
:10C28000604605F00306294646B1344603E001F84E
:10C29000013B401E641C08B1042CF8D30A4601E09F
:10C2A00080C2001F0428FBD2114602E001F8013BC6
:10C2B000401E0028FAD1BDE8F08110B54FF4FA73A2
:10C2C0000122002108460EF0D9FCFCF70FFDFCF717
:10C2D00019FDFCF73BFD4FF4FA73012200210846DB
:10C2E0000EF0CCFC10BD10B50446002C06DD052C6C
:10C2F00004DA00212046FCF74DFD10E07CB9002156
:10C300000120FCF747FD00210220FCF743FD00213E
:10C310000320FCF73FFD00210420FCF73BFD10BD8E
:10C3200070B505460C46002604B908E01448808B19
:10C33000A04203D21248808B464200E06642012DA3
:10C3400006D0022D09D0032D0CD0042D14D10EE0FF
:10C3500031460120FCF71EFD0FE031460220FCF7BC
:10C3600019FD0AE031460320FCF714FD05E03146D3
:10C370000420FCF70FFD00E000BF00BF70BD00000F
:10C38000C4E2002070B504460D461348808BA842D5
:10C3900001D21148858B012C06D0022C09D0032C28
:10C3A0000CD0042C14D10EE029460120FCF7F2FC3D
:10C3B0000FE029460220FCF7EDFC0AE029460320A5
:10C3C000FCF7E8FC05E029460420FCF7E3FC00E06C
:10C3D00000BF00BF70BD0000C4E20020704708B578
:10C3E00026208DF8000002208DF8010000208DF835
:10C3F000020001208DF80300684600F03BF8382069
:10C400008DF8000001208DF801008DF802008DF8F4
:10C410000300684600F02EF827208DF80000022067
:10C420008DF801008DF8020001208DF803006846A8
:10C4300000F020F834208DF8000003208DF8010072
:10C4400000208DF8020001208DF80300684600F0FE
:10C4500011F847208DF8000003208DF8010002201C
:10C460008DF8020001208DF80300684600F002F804
:10C4700008BD000070B5002100230F22C4781CB352
:10C48000174C246804F4E064C4F5E064C4F30721A5
:10C49000C1F10404E3B20A4144789C40E1B28478DB
:10C4A000144021430C07210E0E4C05786155047889
:10C4B00004F01F050124AC4005786D11AD0005F1B5
:10C4C000E025C5F8004109E0047804F01F050124C7
:10C4D000AC40054D0678761145F8264070BD000049
:10C4E0000CED00E000E400E080E100E002490143DF
:10C4F000024A1160704700000000FA050CED00E0F0
:10C500001548164816481748174818481848194833
:10C5100019481A481A481B481B481C481C481D4803
:10C520001D481E481E481F481F48204820482148D3
:10C5300021482248224823482348244824482548A3
:10C540002548264826482748274828482848294873
:10C55000294800BF70470000F4CC010854CC010802
:10C5600058CC01085CCC010860CC010864CC0108FF
:10C5700068CC01086CCC010870CC010874CC0108AF
:10C5800078CC01087CCC010880CC010884CC01085F
:10C5900088CC01088CCC010890CC010894CC01080F
:10C5A00098CC01089CCC0108A0CC0108A4CC0108BF
:10C5B000A8CC0108ACCC0108B0CC0108B4CC01086F
:10C5C000B8CC0108BCCC0108C0CC0108C4CC01081F
:10C5D000C8CC0108CCCC0108D0CC0108D4CC0108CF
:10C5E000D8CC0108DCCC0108E0CC0108E4CC01087F
:10C5F000E8CC0108ECCC0108F0CC010810B50348E8
:10C60000006810B101480068804710BD6803002031
:10C6100070B5044600F0C2F8002048490870484947
:10C620000870484908704849086048490860484906
:10C6300008704849087048490870484908604849E6
:10C6400008604849086048490870484800680A215D
:10C65000B0FBF1F0464908604648006858B14648CA
:10C66000056845B14348066803E0761E002028604F
:10C670002D1D002EF9D10020404908604049086076
:10C6800040490860404908604049086040490860E6
:10C69000404908604049087002F0ECF902F0CCFA19
:10C6A000204601F07BFB208800B170BD204601F0E0
:10C6B0005DFF208800B1F8E7204601F07FFF208869
:10C6C00000B1F2E7204602F04BF8208800B1ECE719
:10C6D000204602F0FFF9208800B1E6E7204602F08C
:10C6E0001FFC208800B1E0E7204602F041FF2088CF
:10C6F00000B1DAE7204601F0A5FE208800B1D4E7BA
:10C70000204601F0BDFC208800B1CEE7204603F0B2
:10C710009FFE208800B1C8E7204602F06DFE208809
:10C7200000B1C2E7204603F0EFFE208800B1BCE76D
:10C7300001F05CFAFFF7E4FE00BFB6E77C030020DF
:10C740007D030020C40300201C04002020040020DE
:10C75000AA030020AB030020AC030020B803002094
:10C76000BC030020C0030020CC030020B4CC01088F
:10C77000C803002084CC010880CC01085C030020A1
:10C780006003002064030020680300206C03002085
:10C790007003002074030020FA030020064800689C
:10C7A0000649096800EB81000549086008460068F1
:10C7B00020F007000860704780CC010884CC010895
:10C7C0002404002008480078012800D0704707485A
:10C7D0000078FA2800DBF9E704480078401C034998
:10C7E000087000BFF2E700007D0300207C030020FA
:10C7F00010B500242D480078012800D010BD00BFDE
:10C80000FBF768FD044600BF2948007828B900BF3F
:10C810002046FBF763FD00BFF0E725480078401E87
:10C820002349087008460078002805DD00BF20462F
:10C83000FBF754FD00BFE1E71E480078002805DD46
:10C8400000BF2046FBF74AFD00BFD7E702F0FEF825
:10C85000194908700846007800EB4000174951F864
:10C860002000174908600846006816490968884290
:10C8700005D100BF2046FBF731FD00BFBEE71048E1
:10C880000068D0F89000401C0D490968C1F890007C
:10C890000D480068401C0C490860FCF7BFF800BF59
:10C8A0002046FBF71BFD00BF00BFA7E77D0300206C
:10C8B0007C030020C4030020AB030020600801209B
:10C8C000200400201C040020F003002010B50024E8
:10C8D0001F480078002800DD10BD1E4800780028A1
:10C8E00000DDF9E700BFFBF7F5FC044600BF02F0EE
:10C8F000ADF8194908700846007800EB4000174968
:10C9000051F8200016490860084600681549096872
:10C91000884205D100BF2046FBF7E0FC00BFDBE703
:10C920000F480068D0F89000401C0D490968C1F814
:10C9300090000D480068401C0B490860FCF769F83E
:10C9400000BF2046FBF7CAFC00BF00BFC4E70000E1
:10C950007C030020C4030020AB03002060080120FA
:10C96000200400201C040020F003002070B50446C1
:10C97000002518480078002803DD46F66250208024
:10C9800070BD15480078012803D045F689602080E5
:10C99000F6E712480078FA2803DB45F209202080E8
:10C9A000EEE700BF00BFFBF795FC054600BF00BFE8
:10C9B0000A480078401C0949087002F01DFA00BFBF
:10C9C00000BF2846FBF78AFC00BF00BF0020208084
:10C9D00000BFD5E77C0300207D030020C4030020B6
:10C9E0002DE9F04105460C461646002700BF00BF62
:10C9F000FBF770FC074600BF00BF012D03D00020ED
:10CA00000D49087002E001200B49087014B10B4871
:10CA1000046006E00A4800680A21B0FBF1F007490B
:10CA2000086000BF00BF3846FBF758FC00BF00BFDE
:10CA300000203080BDE8F081CC030020C803002036
:10CA4000B4CC010870B504460025204800780028C1
:10CA500003DD46F66550208070BD1D480078012832
:10CA600003D045F689602080F6E71A48007818B9A7
:10CA700046F664502080EFE700BF00BFFBF72AFCBA
:10CA8000054600BF00BF13480078401E11490870DA
:10CA90000846007800280ADD00BF00BF2846FBF7E3
:10CAA0001DFC00BF00BF46F663502080D4E702F0B3
:10CAB000B1F900BF00BF2846FBF710FC00BF00BF64
:10CAC000FFF704FF0020208000BFC5E77C030020A3
:10CAD0007D030020C403002010B5044612480078EE
:10CAE000E8B901F0B3FF1149087008460078104911
:10CAF00008700E48007800EB40000E4951F8200005
:10CB00000D490860084600680C4908600120064984
:10CB10000870FBF76DFF43F69920208002E045F690
:10CB20008A60208010BD00007D030020AB03002040
:10CB3000AA03002060080120200400201C0400201B
:10CB40002DE9F04107464FF0000800BF00BFFBF79A
:10CB5000C1FB804600BF00BF00203D4908603D4941
:10CB600008803D4908803D4908603D4908603D49CD
:10CB700008603D4908603D49088100BF00BF40464C
:10CB8000FBF7ACFB00BF00BF00BF00BFFBF7A2FB81
:10CB9000804600BF00BF3648046800BF00BF404663
:10CBA000FBF79CFB00BF00BF21E000BF00BFFBF70D
:10CBB00091FB804600BF00BF00207834E063206016
:10CBC0002063A061A082E0826062A062FDF7AAF803
:10CBD0002062783C04F164060020B081D4F8BC40A7
:10CBE00000BF00BF4046FBF779FB00BF00BF002C31
:10CBF000DBD100BF00BFFBF76DFB804600BF00BF6D
:10CC00001C48056800BF00BF4046FBF767FB00BF3C
:10CC100000BF12E000BF00BFFBF75CFB804600BF17
:10CC200000BF05F120060020B081AD6900BF00BF44
:10CC30004046FBF753FB00BF00BF002DEAD103F0D5
:10CC4000E3FA03F05DFD00203880BDE8F0810000CC
:10CC5000900300208A030020DA030020EC03002068
:10CC6000000400200C040020BC0300205408012014
:10CC7000F4030020B0030020F8B5044600266946FE
:10CC8000324800F08FFDBDF8000018B1BDF800007B
:10CC90002080F8BD6A460021022000F0F7FDBDF8B3
:10CCA000000018B1BDF800002080F2E700BF00BF0F
:10CCB000FBF710FB064600BF00BF002024490860B8
:10CCC00000BF00BF3046FBF709FB00BF00BF0025D7
:10CCD0002048006820490968884205D91D48006835
:10CCE0001D490968B0FBF1F525B91A4800680A2109
:10CCF000B0FBF1F56A460021284600F0C7FD694601
:10CD0000124800F063FABDF8000018B1BDF8000049
:10CD10002080BEE700BF00BFFBF7DCFA064600BF7D
:10CD200000BF00200D490860094800680C490860F0
:10CD300001200C49087000BF00BF3046FBF7CEFA57
:10CD400000BF00BF0020208000BFA2E7E80C012048
:10CD5000DC030020B4CC01089CCC0108EC030020CB
:10CD6000E0030020E803002010B50348006810B17C
:10CD700001480068804710BD6C0300202DE9FF4F7B
:10CD800087B004469046DDE91BA5DDE91496179FA0
:10CD90000020039087480078002805DD47F24A10FC
:10CDA00028800BB0BDE8F08F1CB947F2AD10288089
:10CDB000F7E7B8F1000F03D147F24F102880F0E7F2
:10CDC0001EB946F62F602880EBE77B480068874253
:10CDD00003D246F630602880E3E71698B84203D3C2
:10CDE00046F631602880DCE7B9F1400F03D346F204
:10CDF00073202880D5E7B9F1000F06D16F4884422F
:10CE000003D046F273202880CBE7B9F13F0F06D15B
:10CE10006B48844203D046F273202880C1E7204645
:10CE200002F0B6FB002028800AF0010090B10AF061
:10CE3000020078B105960020069008E000210598D0
:10CE400001600598001D05900698401C0690069804
:10CE5000B842F3D3169806EB80000490CDE9007A2F
:10CE600032464046049B0A9900F06EFB0590C4F8D8
:10CE700028800A98E0620898206284F83790059824
:10CE800020600498A06019986065199818B94D48F9
:10CE90000068A06501E01998A0651A986060666254
:10CEA000A763A4F83CA04FF0000B08E0002104F1B8
:10CEB0007C0040F82B100BF1010000F0FF0BBBF1E0
:10CEC000000FF3D004F16400189901F0C3FB204671
:10CED00000F082F800BF00BF00BFFBF7FBF9039032
:10CEE00000BF00BF38480078401C3749087000BFB9
:10CEF00000BF0398FBF7F2F900BF00BF00BF94F832
:10CF0000370001F0C3FD204601F0DEFE204602F0AE
:10CF1000F5FA2E480088401C2C4908802C480078DF
:10CF200001282DD000BF00BF00BFFBF7D3F903904D
:10CF300000BF00BF24480078401E234908700846FF
:10CF40000078A0B923480088002809DD00BF00BF91
:10CF50000398FBF7C3F900BF00BF01F023FF0DE00A
:10CF600000BF00BF0398FBF7B9F900BF06E000BFA0
:10CF700000BF0398FBF7B2F900BF00BF00BF10E786
:10CF800000BF00BF00BFFBF7A5F9039000BF00BFC3
:10CF90000D480078401E0C49087000BF00BF039880
:10CFA000FBF79CF900BF00BF00BFFFF78FFC00BF7D
:10CFB000F7E600007C030020B0CC010890070120B8
:10CFC000CC060120C8030020C4030020F803002081
:10CFD0007D0300208803002010B504460348006844
:10CFE00018B1204601490968884710BD5C0300203C
:10CFF00070B504460D46002667480078002803DD1A
:10D0000047F24E10288070BD6448844203D147F235
:10D010004C102880F7E76248844203D147F24D1054
:10D020002880F0E77CB900BF00BFFBF753F9064644
:10D0300000BF00BF5B48046800BF00BF3046FBF77D
:10D040004DF900BF00BF00BF00BF00BFFBF742F9B2
:10D05000064600BF00BF54480078401C5249087083
:10D0600000BF00BF3046FBF739F900BF00BF00BF6B
:10D0700094F8360008282DD2DFE800F004090E10DD
:10D08000080A0F11204601F05FFE54E053E000BF94
:10D09000204603F09DF84EE000BF00BF00BF2046D1
:10D0A00003F096F894F83400082810D2DFE800F076
:10D0B00004070508090A0B0600BF00BF08E000BF0F
:10D0C00000BF00BF00BF204601F011FC00E000BF20
:10D0D00000BF30E000BF00BF00BFFBF7FBF8064613
:10D0E00000BF00BF30480078401E2F490870084636
:10D0F0000078A0B92D480088002809DD00BF00BFD6
:10D100003046FBF7EBF800BF00BF01F04BFE0DE02F
:10D1100000BF00BF3046FBF7E1F800BF06E000BFEC
:10D1200000BF3046FBF7DAF800BF00BF00BF46F68D
:10D130002D60288067E700BF04F1640001F068FA01
:10D14000204600F037F8204602F0F0F91848008831
:10D15000401E17490880204602F01AFAFF2084F882
:10D16000360000BF00BF00BFFBF7B4F8064600BFA3
:10D1700000BF0D480078401E0B49087000BF00BF7B
:10D180003046FBF7ABF800BF00BF00BF002028808F
:10D19000FFF79CFB00BF36E77C030020CC06012094
:10D1A000900701201C040020C403002088030020F5
:10D1B000F803002010B504460348006818B1204663
:10D1C00001490968884710BD600300207FB5044607
:10D1D0000D46002600BF00BFFBF77CF8064600BFE7
:10D1E00000BF1CB11548006884420AD100BF00BFCF
:10D1F0003046FBF773F800BF00BF47F25710288096
:10D200007FBD00BF00BF3046FBF768F800BF00BF1E
:10D210000B48007800280BDD0020009001900346A9
:10D2200002462146CDE90205064800F061FFE7E726
:10D230002946204602F024FB00BFE1E71C04002041
:10D240007C0300205452455310B50446034800683F
:10D2500018B1204601490968884710BD64030020C1
:10D260002DE9F04780460E4614461D464FF0000952
:10D270007D480078002805DD46F2AE1028800020A9
:10D28000BDE8F0871EB1B6F5004F02D100E000BF47
:10D2900004E045F6256028800020F1E700BF0CB1CE
:10D2A0000020206000BF00BFFBF714F8814600BFDC
:10D2B00000BF6E480068406CA8B36C480068406CC2
:10D2C000401E6A490968486468480068476C1CB198
:10D2D00066480068006C2060FCF724FD634909681B
:10D2E000096C401A61490968C1F8A4005F480068E8
:10D2F000D0F8A8005D490968D1F8A410884207D287
:10D300005A480068D0F8A40058490968C1F8A80034
:10D3100000BF00BF4846FAF7E1FF00BF00BF002092
:10D3200028803846ACE7FFE706F4004058B100BF5C
:10D3300000BF4846FAF7D2FF00BF00BF46F2B01068
:10D34000288000209CE74A48007800280BDD00BFB9
:10D3500000BF4846FAF7C2FF00BF00BF46F6635061
:10D36000288000208CE700BF41480078401C4049DD
:10D37000087000BF00BF4846FAF7B0FF00BF00BF0B
:10D3800000BF434607220021084601F0F5F900BF1F
:10D3900000BF00BFFAF79EFF814600BF00BF3448C0
:10D3A0000078401E3249087000BF00BF4846FAF7B7
:10D3B00095FF00BF00BF00BFFFF788FA00BF00BFA6
:10D3C000FAF788FF814600BF00BF2848006890F840
:10D3D000350020B1012826D0032834D12CE0FCB13F
:10D3E00022480068006C2060FCF79CFC1F4909681B
:10D3F000096C401A1D490968C1F8A4001B4800685F
:10D40000D0F8A80019490968D1F8A410884207D2B9
:10D4100016480068D0F8A40014490968C1F8A800AB
:10D420000020288013E01CB110480068006C2060C8
:10D4300046F2A91028800AE00CB10020206047F2D3
:10D44000D920288003E046F62E60288000BF00BF68
:10D4500006480068476C00BF00BF4846FAF73EFF29
:10D4600000BF00BF38460BE77C0300201C040020EF
:10D47000C40300202DE9F04705460E4617461C461A
:10D480004FF0000A2E480078002804DD47F25910BA
:10D490002080BDE8F0871EB946F2D5202080F8E74D
:10D4A0001FB946F2D5202080F3E700BF00BFFAF78E
:10D4B00011FF824600BF00BF0DB9224805682868E9
:10D4C00068B900BF00BF5046FAF708FF00BF00BFB1
:10D4D00000203060386047F252102080D9E795F87C
:10D4E0003C0000F0010068B900BF00BF5046FAF7E9
:10D4F000F5FE00BF00BF00203060386047F25410D6
:10D500002080C6E700BF00BF5046FAF7E7FE00BF25
:10D5100000BF4FF00008D5F8249003E009F104099A
:10D5200008F10108D9F800000028F7D0C6F80080FB
:10D53000A86BA0EB080038600020208000BFA8E79F
:10D540007C0300201C040020F0B50446DDE90556EC
:10D5500002EB850020F007004FF0000C071F384653
:10D56000C7F800C04FF4805C071F3846C7F800C0FA
:10D570004FF0150C071F3846C7F800C04FF0140CC9
:10D58000071F3846C7F800C04FF0130C071F384676
:10D59000C7F800C04FF0120C071F3846C7F800C08C
:10D5A0004FF0110C071F3846C7F800C04FF0100CA1
:10D5B000071F3846C7F800C04FF0090C071F384650
:10D5C000C7F800C04FF0080C071F3846C7F800C066
:10D5D0004FF0070C071F3846C7F800C04FF0060C85
:10D5E000071F3846C7F800C04FF0050C071F384624
:10D5F000C7F800C04FF0040C071F3846C7F800C03A
:10D600004FF0030C071F3846C7F800C04FF0020C5C
:10D61000071F3846C7F800C04FF0010C071F3846F7
:10D62000C7F800C04FF0000C071F3846C7F800C00D
:10D630004FF0807C071F3846C7F800C0071F3846E8
:10D640003C60DFF85CC1071F3846C7F800C04FF0E8
:10D65000123C071F3846C7F800C04FF0033C071FB5
:10D660003846C7F800C04FF0023C071F3846C7F8DD
:10D6700000C0071F38463B60071F384639604FF02F
:10D68000310C071F3846C7F800C04FF0300C071F99
:10D690003846C7F800C04FF0290C071F3846C7F8B6
:10D6A00000C04FF0280C071F3846C7F800C04FF0E5
:10D6B000270C071F3846C7F800C04FF0260C071F7D
:10D6C0003846C7F800C04FF0250C071F3846C7F88A
:10D6D00000C04FF0240C071F3846C7F800C04FF0B9
:10D6E000230C071F3846C7F800C04FF0220C071F55
:10D6F0003846C7F800C04FF0210C071F3846C7F85E
:10D7000000C04FF0200C071F3846C7F800C04FF08C
:10D71000190C071F3846C7F800C04FF0180C071F38
:10D720003846C7F800C04FF0170C071F3846C7F837
:10D7300000C04FF0160C071F3846C7F800C04FF066
:10D74000113C071F3846C7F800C04FF0103C071FB8
:10D750003846C7F800C04FF0093C071F3846C7F8E5
:10D7600000C04FF0083C071F3846C7F800C04FF014
:10D77000073C071F3846C7F800C04FF0063C071F9C
:10D780003846C7F800C04FF0053C071F3846C7F8B9
:10D7900000C04FF0043C071F3846C7F800C0F0BD7A
:10D7A000C1F900087FB505460C461248854203D1F1
:10D7B00047F25B1020807FBD0F48854203D147F2BE
:10D7C0005C102080F7E70D48007800280BDD002072
:10D7D00000900190034602462946CDE9020408481C
:10D7E00000F086FCE7E72146284602F057FB00BF21
:10D7F000E1E70000CC060120900701207C03002017
:10D800005453555310B51D48006810B11B480068AB
:10D810008047FCF787FA04461948006819490968E7
:10D82000884215D016480068D0F89800201A14498C
:10D830000968C1F8940012480068D0F89C001049AB
:10D840000968D1F8941008440D490968C1F89C0092
:10D850000C480068C0F8984009480068D0F8B40047
:10D8600009490968884205D20748006804490968DF
:10D87000C1F8B40000200449086010BD7003002006
:10D880001C04002020040020C00300202DE9F041EA
:10D8900005460E46144600273F480078002804DD60
:10D8A00047F275202080BDE8F0813C4800780028D0
:10D8B00003DD46F663502080F5E736B1022E05D031
:10D8C000042E0AD0082E09D101E000BF00BF1DB907
:10D8D00047F27E202080E6E704E003E045F625607D
:10D8E0002080E0E700BF00BF00BF00BFFAF7F2FCF6
:10D8F000074600BF00BF29480078401C2749087030
:10D9000000BF00BF3846FAF7E9FC00BF00BF00BF08
:10D9100001202349096881F836002346324629460A
:10D920001F48006802F076FB2088A8B100BF00BF46
:10D9300000BFFAF7CFFC074600BF00BF17480078CA
:10D94000401E1649087000BF00BF3846FAF7C6FCF3
:10D9500000BF00BF00BFA6E71148006801F0F4F95E
:10D9600000BF00BF00BFFAF7B5FC074600BF00BF0D
:10D970000A480078401E0949087000BF00BF3846B9
:10D98000FAF7ACFC00BF00BF00BFFEF79FFF00200E
:10D99000208000BF87E700007C030020C403002034
:10D9A0001C0400202DE9FF5F05460E4617469846E9
:10D9B000DDE90EA40020009072480078002804DD04
:10D9C00047F275202080BDE8FF9F6F48007800284F
:10D9D00003DD46F663502080F5E70AF00E0BBBF13D
:10D9E000000F09D0BBF1020F07D0BBF1040F10D01C
:10D9F000BBF1080F0ED101E000BF00BFB8F1000F6E
:10DA000006D12FB926B91DB947F27E202080DAE76A
:10DA100004E003E045F625602080D4E700BF2AF04B
:10DA20001E0008B1012000E00020039003980128A7
:10DA300003D145F625602080C5E7CAF300100290A7
:10DA40000298C0B9B8F57A7F03D347F27B202080D3
:10DA5000B9E73B2F03DD47F27A202080B3E73B2E66
:10DA600003DD47F279202080ADE7632D12DD47F218
:10DA700078202080A7E742F20F70864203DD47F24C
:10DA8000792020809FE7B5F57A7F03DB47F2782085
:10DA9000208098E73D48D0F800904FF4FA70B0FB32
:10DAA000F9F0404400FB09F04FF47A71B0FBF1F15A
:10DAB0004FF461606843C6EB061200EB8200384405
:10DAC00000FB091001900198002856D000BF00BF4C
:10DAD00000BFFAF7FFFB009000BF00BF2A480078A4
